{
  "transactions": [
    {
      "hash": "0x753bda4043719b4b41270a393870bc119e4baeb024467aae8c2133871e62f89c",
      "transactionType": "CALL",
      "contractName": null,
      "contractAddress": "0xb2591c5aad8712255ae7c34c84cfc48d786c361c",
      "function": "mintNft(string)",
      "arguments": [
        "ipfs://bafybeig37ioir76s7mg5oobetncojcm3c3hxasyd4rvid4jqhy4gkaheg4/?filename=0-PUG.json"
      ],
      "transaction": {
        "from": "0x2eb2df65be28fabda062548a7dedc81626ba4bf5",
        "to": "0xb2591c5aad8712255ae7c34c84cfc48d786c361c",
        "gas": "0x3d64e",
        "value": "0x0",
        "input": "0xda86f4a900000000000000000000000000000000000000000000000000000000000000200000000000000000000000000000000000000000000000000000000000000057697066733a2f2f62616679626569673337696f6972373673376d67356f6f6265746e636f6a636d3363336878617379643472766964346a71687934676b61686567342f3f66696c656e616d653d302d5055472e6a736f6e000000000000000000",
        "nonce": "0x2e",
        "chainId": "0xaa36a7"
      },
      "additionalContracts": [],
      "isFixedGasLimit": false
    }
  ],
  "receipts": [
    {
      "status": "0x1",
      "cumulativeGasUsed": "0x152039b",
      "logs": [
        {
          "address": "0xb2591c5aad8712255ae7c34c84cfc48d786c361c",
          "topics": [
            "0xddf252ad1be2c89b69c2b068fc378daa952ba7f163c4a11628f55a4df523b3ef",
            "0x0000000000000000000000000000000000000000000000000000000000000000",
            "0x0000000000000000000000002eb2df65be28fabda062548a7dedc81626ba4bf5",
            "0x0000000000000000000000000000000000000000000000000000000000000000"
          ],
          "data": "0x",
          "blockHash": "0x83ddbc063d9fe3dbc18fab700e96133b7ee70b27caaaf15f1d9942875ac581c7",
          "blockNumber": "0x74a75c",
          "transactionHash": "0x753bda4043719b4b41270a393870bc119e4baeb024467aae8c2133871e62f89c",
          "transactionIndex": "0x85",
          "logIndex": "0x16f",
          "removed": false
        }
      ],
      "logsBloom": "0x00000000000000000000000000000000000001000000000000000000000000000000000000000000000000000000000000000000000000000000000000000000000000000002000000000008000000000000000000000000000000000000000000000000020000000000000000080800000000000000000000000010000000000000000000000000000000000000000000000000000000000000000000000000000000000000000000000000000000000000000000000000000000000000000000000002000000000000000000000000000000000000000000000000000020000000000000000200000000000000000000000000000000000000020000400000",
      "type": "0x2",
      "transactionHash": "0x753bda4043719b4b41270a393870bc119e4baeb024467aae8c2133871e62f89c",
      "transactionIndex": "0x85",
      "blockHash": "0x83ddbc063d9fe3dbc18fab700e96133b7ee70b27caaaf15f1d9942875ac581c7",
      "blockNumber": "0x74a75c",
      "gasUsed": "0x2c72d",
      "effectiveGasPrice": "0xb0874ff6f",
      "from": "0x2eb2df65be28fabda062548a7dedc81626ba4bf5",
      "to": "0xb2591c5aad8712255ae7c34c84cfc48d786c361c",
      "contractAddress": null
    }
  ],
  "libraries": [],
  "pending": [],
  "returns": {},
  "timestamp": 1738760053,
  "chain": 11155111,
  "commit": "93bcf4a"
}